:040000005EEF00F0BF
:10000800FACF3DF0FBCF3EF0E9CF3FF060EF00F0D4
:10001800D8CF74F0E8CF75F0E0CF76F0FACF77F06C
:10002800FBCF78F0E9CF79F0EACF7AF0E1CF7BF037
:10003800E2CF7CF0D9CF7DF0DACF7EF0F3CF7FF03E
:10004800F4CF80F0F6CF81F0F7CF82F0F8CF83F0CD
:10005800F5CF84F0A4BAA3AA0AD074CF4EF04E50BC
:10006800FCEC00F071A203D07198718800D084C0B4
:10007800F5FF83C0F8FF82C0F7FF81C0F6FF80C09C
:10008800F4FF7FC0F3FF7EC0DAFF7DC0D9FF7CC0DC
:10009800E2FF7BC0E1FF7AC0EAFF79C0E9FF78C0E0
:1000A800FBFF77C0FAFF76C0E0FF75C0E8FF74C0B9
:1000B800D8FF1000A1EF01F0EACF40F0E1CF41F006
:1000C800E2CF42F0D9CF43F0DACF44F0F3CF45F096
:1000D800F4CF46F0F6CF47F0F7CF48F0F8CF49F025
:1000E800F5CF4AF09EB49DA450D09E949D9428507C
:1000F800D8A40BD02950D8A408D02750D8A405D00C
:100108002A50D8A402D0898800D02804D8A40BD0BB
:100118002950D8A408D02750D8A405D02A50D8A44C
:1001280002D0898800D02804D8A40BD02904D8A4E8
:1001380008D02750D8A405D02A50D8A402D089982E
:1001480000D02804D8A40BD02904D8A408D027505C
:10015800D8A405D02A04D8A402D0899800D02804AD
:10016800D8A413D02904D8A410D02704D8A40DD01B
:100178002A04D8A40AD08998000E286E000E296E89
:10018800000E276E000E2A6E00D0F2B4F2AA13D029
:10019800F2942C2A2D28D8B40ED02D502C18D8A47F
:1001A8000AD0F29A000ED76E000ED66EF2949D9485
:1001B8009E949D8400D04AC0F5FF49C0F8FF48C00E
:1001C800F7FF47C0F6FF46C0F4FF45C0F3FF44C041
:1001D800DAFF43C0D9FF42C0E2FF41C0E1FF40C09F
:1001E800EAFF3FC0E9FF3EC0FBFF3DC0FAFF110038
:1001F8004D6E0D0E4D18D8A408D00A0ED1EC01F0A2
:10020800010E2B6E000E2E6E1200080E4D18D8B47B
:1002180004D07F0E4D18D8A418D02E50D8B4120090
:10022800080ED1EC01F0200ED1EC01F0080ED1EC53
:1002380001F02E062E50010D600EF324D96E000E2B
:10024800F420DA6E000EDF6E12004D506EEC01F0F5
:100258000009D8A406D04D50EDEC01F00009D8B43F
:100268001200140E2E6012002E50010D600EF324A1
:10027800D96E000EF420DA6E4DC0DFFF2E2A4D50E5
:10028800D1EC01F012001200D08E000EF26E800E3A
:10029800F16E000EF06E000E9E6E000EA16E000E46
:1002A800A46E000E7B6E000E7E6E000E9D6E000E1C
:1002B800A06E000EA36E000E7A6E000E7D6E010E0B
:1002C8009F6E010EA26E040EA56E000E7C6E000ECF
:1002D8007F6E12004B6E400E4B6406D05B0E4B6077
:1002E80003D0010E120014D0600E4B6406D07B0EB2
:1002F8004B6003D0F6D712000BD02D0E4B18D8B494
:10030800F0D75F0E4B18D8A403D0EBD7120000D05B
:10031800000E12001200A398A38AA59A958C0F01CB
:100328003B9D958E0F013B9F200E726E900E716E55
:10033800000E706E190E756E120000EE60F0140E4D
:10034800EE6AE806FDE100EE01F03C0EEE6AE80612
:10035800FDE1000EF86E000103EF02F0000ED16E11
:10036800F29E48EC01F0F9EC01F0F28CF28E8FEC81
:1003780001F0C2EC01F0010ED16E1200948694884F
:100388000F013A970F013A99280EC66E000EC56EF6
:10039800C79CC78E270EC86E12004C6E0A0E4C18EA
:1003A800D8A404D00D0EDFEC01F012004C50DFECA5
:1003B80001F0120012004B6E7198728A00D0A4A846
:1003C800FED74BC073FF00D072A2FED7729A718815
:1003D80012004B6E2F0E4B6405D03A0E4B6002D0C4
:1003E800010E1200000E12001200000ED36E000E55
:1003F800D26E000E9B6E00D0D3A6FED71200B2ECD0
:1004080001F000D00BEC02F0FDD75EEF00F0120017
:020000040020DA
:08000000000A0B0BFFFFFFFFDC
:020000040030CA
:0E000000FF62191AFFBE81FF0FC00FE00F4014
:00000001FF
